S01800006275696C642F6D696361322F6D61696E2E737265632D
S11300000C9487010C94A6010C94A6010C94A601EF
S11300100C94A6010C94A6010C94A6010C94A601C0
S11300200C94A6010C94A6010C94A6010C9431091D
S11300300C9410090C941B090C9442090C94EA14B6
S11300400C94FF080C94DF180C940B0B0C94A60171
S11300500C94870B0C9449170C94A6010C94A601DC
S11300600C9426090C94DA0C0C94B90C0C94C40C62
S11300700C94CF0C0C94ED0C0C949C0C0C94A601D9
S11300800C94AE0C0C94A6010C94A60136203C20D2
S1130090D22022219F21C821FD24152518254D2574
S11300A050252520322640262D27ED27CF28E0286D
S11300B0E228E5280A292E204229000021104220A6
S11300C063308440A550C660E770088129914AA135
S11300D06BB18CC1ADD1CEE1EFF1311210027332AC
S11300E05222B5529442F772D662399318837BB385
S11300F05AA3BDD39CC3FFF3DEE36224433420043C
S11301000114E664C774A44485546AA54BB52885D4
S11301100995EEE5CFF5ACC58DD55336722611168B
S11301203006D776F6669556B4465BB77AA7199724
S11301303887DFF7FEE79DD7BCC7C448E558866813
S1130140A7784008611802282338CCC9EDD98EE974
S1130150AFF9488969990AA92BB9F55AD44AB77AEB
S1130160966A711A500A333A122AFDDBDCCBBFFBC4
S11301709EEB799B588B3BBB1AABA66C877CE44CFB
S1130180C55C222C033C600C411CAEED8FFDECCD14
S1130190CDDD2AAD0BBD688D499D977EB66ED55ECB
S11301A0F44E133E322E511E700E9FFFBEEFDDDF64
S11301B0FCCF1BBF3AAF599F788F8891A981CAB1F0
S11301C0EBA10CD12DC14EF16FE18010A100C23022
S11301D0E3200450254046706760B9839893FBA3DD
S11301E0DAB33DC31CD37FE35EF3B1029012F32272
S11301F0D2323542145277625672EAB5CBA5A8952D
S113020089856EF54FE52CD50DC5E234C324A014C1
S113021081046674476424540544DBA7FAB79987BC
S1130220B8975FE77EF71DC73CD7D326F236910611
S1130230B01657667676154634564CD96DC90EF904
S11302402FE9C899E9898AB9ABA944586548067861
S11302502768C018E1088238A3287DCB5CDB3FEB1C
S11302601EFBF98BD89BBBAB9ABB754A545A376AB1
S1130270167AF10AD01AB32A923A2EFD0FED6CDDEC
S11302804DCDAABD8BADE89DC98D267C076C645C01
S1130290454CA23C832CE01CC10C1FEF3EFF5DCFFC
S11302A07CDF9BAFBABFD98FF89F176E367E554E51
S11302B0745E932EB23ED10EF01E00081C1814106A
S11302C0ABBA83AAAA008025009224200000201C37
S11302D00000001900008016005D74140000C012B4
S11302E000C54E110049121000BD04880552061CB9
S11302F007E607B0087B09450A0F0BAA01F101388C
S1130300028002C7020E0355039C03E30300112479
S11303101FBECFEFD0E1DEBFCDBF11E0A0E0B1E062
S1130320E4EEF5E600E00BBF02C007900D92A033A7
S1130330B107D9F71CE1A0E3B1E001C01D92A639D1
S1130340B107E1F70E94AE290C94F1320C9400003D
S11303508FB7F894992708958FBF089560910D037E
S113036070910E032CB53DB506B602FE04C06F5F56
S11303707F4F2CB53DB588279927CB017727662772
S113038044275527622B732B842B952B0895EAEB76
S1130390F0E06927660FF11DE60FF11DC895982F4F
S11303A0802D3196C89590250895880F949890E0F3
S11303B087FF02C0979A01C097989698969A9F5F74
S11303C0973011F0880FF4CF979A9698969A949A4A
S11303D080E067FF02C0979A01C097989698969A12
S11303E08F5F883011F0660FF4CF949A979A969A9B
S11303F008956091440B89E00E94D50160E08BE090
S11304000E94D50161E180E00E94D5018DE790E072
S1130410019701960197E1F70895282F9FB7F89463
S1130420E82FFF27E759FE4F80818F3F81F4E09149
S1130430610CE21771F40BC02093D60B04C0FF27A4
S1130440E759FE4F20832093610C20E007C025E08C
S113045005C08091D60B8F3F91F7EECF892F992756
S11304608FBF822F992708952F923F924F925F92C8
S11304706F927F928F929F92AF92BF92CF92DF92B0
S1130480EF92FF920F931F93CF93DF93CDB7DEB715
S113049029970FB6F894DEBF0FBECDBF6FB769833F
S11304A0F8942090E7023090E8024090E9025090DE
S11304B0EA02662477248824EEE4AE2E73E8B72E8D
S11304C0CC24DD24EE24FF2400E010E0222D332D83
S11304D0442D552D662D772D882D90E00E94552DA5
S11304E02A833B834C835D836E837F8388879987CC
S11304F0822E932EA42EB52E2401350100E20E94F3
S1130500532EA22EB32EC42ED52EA301920156959E
S11305104795379527952A0D3B1D4C1D5D1D57FFAB
S113052005C05F772F5F3F4F4F4F5F4F2093E70228
S11305303093E8024093E9025093EA02E9818E2F56
S113054099278FBFCA01B90129960FB6F894DEBF67
S11305500FBECDBFDF91CF911F910F91FF90EF9010
S1130560DF90CF90BF90AF909F908F907F906F90CF
S11305705F904F903F902F9008958091DE0B8823D9
S113058019F02FE170E002C078E020E0622FEFB7AD
S1130590F894809196018E7F8093960187B1982F6D
S11305A09F71829586958695837019F080E090E01E
S11305B012C0822F8850863118F081E090E00BC081
S11305C040E050E03327892F99272817390711F481
S11305D041E050E0CA01982F9170990F80919601E3
S11305E08178262F2F71422F440F440F892B842B9F
S11305F080939601332727B9783059F58091D70B2A
S11306009091D80B21E08638920718F087E090E0AB
S11306101FC0833C910518F086E090E019C0813634
S1130620910518F085E090E013C08033910518F02F
S113063084E090E00DC08831910518F083E090E0EB
S113064007C00C9718F082E090E002C080E090E0D0
S1130650782F7770887D872B886D992786B98E2FA0
S113066099278FBF0895982F969596959695E0EAC9
S1130670F3E0E90FF11D877021E030E002C0220FA2
S1130680331F8A95E2F7808182239927089561EECA
S113069080E00E94D5016091690289E00E94D50141
S11306A08AEF90E0019701960197E1F76091FF02CC
S11306B08BE00E94D50184E190E0019701960197B7
S11306C0E1F70895E0910801F0910901E359FF4F22
S11306D080819927982F882721813327822B932B78
S11306E0CC9620910B0130910C0142818217930723
S11306F010F4426001C04D7F428385E00E940D02E8
S113070085E08093520108951F931FB7F894809158
S11307105D0C882341F48FE00E940D02882319F4B4
S113072081E080935D0C812F99278FBF1F910895DD
S1130730382FFA01422F253618F082E090E0089510
S11307406183872F99278083368324838091440192
S113075090914501892B19F085E090E008952FB719
S1130760F89433271092470110924801F093430103
S1130770E093420182E090E090934501809344012C
S113078010924A0110924901495F409346012FBFDC
S11307908FB7F894282F3327809171058A3011F48C
S11307A02FBF19C02FBF9FB7F8948091F9028823F7
S11307B011F020E006C081E08093F9021092FA0261
S11307C021E0892F99278FBF222329F00E948403D7
S11307D080E090E00895109245011092440181E078
S11307E090E00895E82FFF27EE0FFF1FEF52F44F1C
S11307F01182108210921D01E091D10BF091D20B65
S1130800309721F08091EE0280FF08C081E0809350
S11308101D01089586E10E940D0208952481332765
S113082060817727762F662781819927682B792B1A
S1130830AF0186810E949803882361F7089580910F
S113084071058A3021F48091EF01843021F081E038
S113085080933F01089581E10E940D0210923F01AF
S113086008952FB7F89433278CB95E9A2FBF089553
S1130870FC016115710519F481E090E008958091FF
S1130880F5029091F602892B19F085E090E0089525
S11308907093CB0B6093CA0BF093F602E093F502CE
S11308A0109268021092670281E080936A025E9A55
S11308B0569A808121E030E03093680220936702E9
S11308C00E94310480E090E008958FB7F89499274E
S11308D0209150012E7F209350012EE72093800118
S11308E08FBF61E070E080E891E00E9438049927AE
S11308F00895AC01E3E1F3E080E090E09C018581A0
S113090080FF05C0808191818417950741F0C9015A
S113091001963E968A30910589F72FEF30E0C901A0
S113092008950E9479048F3F99F09927880F991FA1
S1130930FC0123E0EE0FFF1F2A95E1F7E81BF90BFA
S1130940ED5EFC4F858181FF03C082859385089508
S11309508FEF90E008950E9479048F3F19F481E0AD
S113096090E008959927880F991FFC0143E0EE0F4A
S1130970FF1F4A95E1F7E81BF90BED5EFC4F8581FB
S11309808860858380E090E00895EF920F931F9331
S1130990AE2D99E0899FF0011124EF55FC4F40835F
S11309A05183628373830483158326833783A17001
S11309B080858E7F8A2B8260808789E00E940D0269
S11309C01F910F91EF9008957FB7F89462B720912B
S11309D0540130915501409156015091570106B68A
S11309E001FE0FC081B792B7280F311D411D511D63
S11309F02F5F3F4F4F4F5F4F290F311D411D511D39
S1130A0004C0260F311D411D511D872F99278FBF0B
S1130A10CA01B90108959C016E5F653618F080E043
S1130A2090E00895079611F0C90109960895FC0114
S1130A3083859927982F882724853327822B932B06
S1130A400895FC01CB01428553859A0173E0220F7E
S1130A50331F7A95E1F7240F351F2B5F3F4F820F29
S1130A60931F6AE070E00E94EE30738762870895F6
S1130A70FC0164859585662339F48AE0989FB0016A
S1130A8011246A5070400BC077278AE0989FC001F8
S1130A9011240E9402316A50704014861586CF01D9
S1130AA00E942105089580913601E82FFF27EE0F5B
S1130AB0FF1FE65DF44F0190F081E02D2091380195
S1130AC0222351F08F5F809336018D3011F4109200
S1130AD03601215020933801CF010895FC0183850C
S1130AE09927982F882724853327822B932B0895C1
S1130AF0AF92BF92DF92EF92FF920F931F93CF9327
S1130B00DF935C01D0905801F090FE02EE2425C0E2
S1130B100F2D03701127C5010E946E05F801EE0F19
S1130B20FF1FEE0FFF1FE00FF11FEF57FE4F208155
S1130B3031818217930779F4D5011796ED019E81CF
S1130B408281891741F499818481891721F49F81D5
S1130B508381891721F0E394F394ED14C9F68E2D63
S1130B609927DF91CF911F910F91FF90EF90DF9024
S1130B70BF90AF900895AC012091FD022C3018F085
S1130B8081E090E008958091EB02682F620F712D4F
S1130B90711DFB016C30710508F03C97EE0FFF1FCF
S1130BA0EC58FA4F518340832F5F2093FD0280E07D
S1130BB090E00895AC012091FC022C3018F081E003
S1130BC090E008958091E00B682F620F712D711DE4
S1130BD0FB016C30710508F03C97EE0FFF1FEE59D6
S1130BE0F34F518340832F5F2093FC0280E090E019
S1130BF008950F931F93CF93DF93EC01892BE9F0B2
S1130C0020914B0B30914C0B8FEF2F3F3807A9F0FD
S1130C1080915901813019F4198218820BC0009116
S1130C204D0B10914E0BC9010E949104080F191F1E
S1130C301983088380E090E002C081E090E0DF91B6
S1130C40CF911F910F9108959C01685F653618F04C
S1130C5080E090E00895079611F0C9010F96089579
S1130C608FB7F89499272BB332E023272BBB8FBF80
S1130C700895EF92FF920F931F93CF93DF93EC01AC
S1130C8036E0E32EF12CE80EF91E6E81A62FBB2769
S1130C90009100011091010140E050E0FC013996FF
S1130CA00EC080819927982F882721813327822B92
S1130CB0932B8017910731F04F5F5F4F32964A179D
S1130CC05B077CF34115510519F04A175B07E1F402
S1130CD06430D0F46F5FF70160832091000130919C
S1130CE00101862F992760910601709107010197F0
S1130CF00E940231FC01EE0FFF1F3996EC0FFD1F1D
S1130D002183232F33272083DF91CF911F910F91CC
S1130D10FF90EF900895AC01209138012D3018F028
S1130D2081E090E0089580913701E82FFF27EE0FCE
S1130D30FF1FE65DF44F518340838F5F809337013B
S1130D408D3011F4109237012F5F2093380180E029
S1130D5090E00895DF92EF92FF920F931F938FB765
S1130D60F894282F3327D22E91B782B746B7981715
S1130D7011F041FF02C02FBF6AC080910003882395
S1130D80E1F10E94E404E0908E05F0908F0500915B
S1130D909005109191052091620130916301409179
S1130DA06401509165016E197F09800B910B6217E4
S1130DB073078407950720F01092000371E01EC0AA
S1130DC02E0D3F1D401F511F8091540190915501DC
S1130DD0A0915601B0915701281B390B4A0B5B0BAC
S1130DE0273E31054105510540F4822F223010F091
S1130DF070E005C070E082E002C070E086EE682F0B
S1130E00615000B601FCFDCF82B7681709F46F5F2B
S1130E102091540130915501409156015091570150
S1130E20DA01C9010196A11DB11D860F911DA11DF5
S1130E30B11D82179307A407B50710F4622F6095BC
S1130E4061BFDFBE772319F088E00E940D021F9175
S1130E500F91FF90EF90DF900895AFB7F894BB2700
S1130E60E1E0E093000360938E0570938F05809317
S1130E709005909391052093620130936301409310
S1130E80640150936501AFBF0E94AA0608950895B6
S1130E900F931F93CF93DF93282F3327C901880F14
S1130EA0991FFC0113E0EE0FFF1F1A95E1F7E81BF1
S1130EB0F90BED5EFC4F858182FF03C062838B7F5B
S1130EC085838281962F981B628383818F5F8383BE
S1130ED086E08683992361F08481890F815084831D
S1130EE09B3030F0148281E0838317821186108650
S1130EF0C901880F991FFC01A3E0EE0FFF1FAA95FB
S1130F00E1F7E81BF90BED5EFC4F8381833008F4B5
S1130F1071C000811181C3E1D3E088819981801778
S1130F20910709F061C08D8180FF5EC08E818823A6
S1130F3011F081508E838F81882311F081508F832B
S1130F408E81882351F48F81882339F48D8191E037
S1130F5089278D831986188642C08D8182608D838E
S1130F609B816C81690F633008F463E077278FEF0E
S1130F70989FC00111240E940231888529E0829F34
S1130F80C00111240596860F911D6AE070E00E944D
S1130F90023168871B821C824985662301F1442340
S1130FA0F1F0772781E09EEF0E94EE30CB019B01A8
S1130FB0F3E0220F331FFA95E1F7642F7727880FA8
S1130FC0991F820F931F0E94EE306A5070406F3F4A
S1130FD0710519F010F06CE370E0772702C06CE340
S1130FE070E0CE010E9421052E9683E0CF39D80708
S1130FF009F093CFDF91CF911F910F91089580E075
S113100090E0E8E1F3E09C01808180FF08C0C90121
S113101001963E968A309105B1F72FEF30E0C90171
S113102008959EE0899FF0011124ED5EFC4F7183C9
S1131030608312821382148285E0858386E086832E
S1131040878310861186138612860895982FAFEF32
S113105060E070E040E050E0E8E1F3E08081282FB8
S1131060332720FF0BC021FF09C023FD07C02581C2
S113107036812617370710F0A42FB9014F5F5F4F51
S11310803E964A30510551F7892F992768177907F9
S113109018F48FEF90E008958A2F99270895AC01F2
S11310A0309168018FEF4F3F580711F020E012C0D4
S11310B0832F99270895E22FFF2783E0EE0FFF1F68
S11310C08A95E1F7E956FE4F80819181841795074F
S11310D019F02F5F231779F7822F992708951F930B
S11310E0CF93DF93162FC0E0D0E062E60E940B0599
S11310F0FC0180818123811711F4C1E0D0E0CE018D
S1131100DF91CF911F910895FC0184814781552778
S11311104F7050709A01220F331F240F351F821B0A
S11311208250992708956FE380E00E94D50160E022
S11311308BE00E94D501089582E0809352011092C1
S1131140C6041092C5040E94F901BB98BA9880ECB9
S11311508DB9B8980895AF92BF92CF92DF92EF9273
S1131160FF920F931F93F82E5A016B010E94E4041F
S1131170AB01BC01EE24960185018F2D0E94C504AC
S11311801F910F91FF90EF90DF90CF90BF90AF90A1
S1131190089566EA8EE00E94D50194988CE120E0DF
S11311A030E087FF02C0979A01C097989698969A64
S11311B02F5F3F4F2730310511F0880FF2CF9798FA
S11311C09698969A8F98949A80E096989927879BF8
S11311D004C0880F991F816001C0880F969A21501E
S11311E030409FEF2F3F390781F7949A8F9A979A4F
S11311F083FFD3CF66E28EE00E94D50108951F924B
S11312000F920FB60F9211248F9383B783BF00B64A
S113121000FCFDCF8F910F900FBE0F901F9018957B
S113122078941F920F920FB60F9211240F900FBE55
S11312300F901F90189578941F920F920FB60F92EB
S113124011240F900FBE0F901F90189578941F9241
S11312500F920FB60F9211240F900FBE0F901F9094
S1131260189578941F920F920FB60F9211248F93B2
S11312709F9386B597B59F918F910F900FBE0F9056
S11312801F90189578941F920F920FB60F92112405
S11312902F933F938F939F932FB7F8943327809185
S11312A00D0390910E03019690930E0380930D030A
S11312B02FBF9F918F913F912F910F900FBE0F9051
S11312C01F901895982F80914B01882389F59923B5
S11312D079F531E030934B018091160180934C01F4
S11312E020914001822F81708093670180911B01BE
S11312F090911C0190934E0180934D018091410186
S113130080934F0132273170267EE32FFF27EE0FA3
S1131310FF1FE95EFE4F8081918190931C018093B1
S11313201B01232B2093400184E10E940D020895A8
S11313308091400180FF02C08B7F01C08D7F80932C
S1131340400108950F931F93082F162F8091EF01EA
S11313508130D9F0813038F0823009F44AC08330CA
S113136009F022C159C0002309F452C11092470B5D
S11313701092460B109273051092CC0B1092E2025D
S11313801092100310920F0333C1002309F040C1DF
S113139080910F03909110030E94C7019093100352
S11313A080930F0382E08093EF011093CC0B1434ED
S11313B009F0FAC01FC18695869503C0809140014B
S11313C08695817009F0F0C080914001992311F055
S11313D0846001C082608093400180914001877ED7
S11313E0886080934001109241018FEF8093160131
S11313F00FC1002309F0D8C06093E20280910F036B
S1131400909110030E94C7019093100380930F03DF
S113141083E08093EF01FCC0809173058F3F09F452
S1131420C3C0002309F461C0823008F4BDC0E09158
S1131430460BEE2309F4E5C04E2F4150E42FFF275D
S1131440EA5BF44F82819927382F2227442311F431
S1131450E2E002C0E42FE150FF27EA5BF44F82810F
S11314609927282B392B80910F039091100328176B
S1131470390709F099C080E00E9462093091E202C4
S11314808091010320910203982F9F5F963008F00A
S113149090E0921771F0E82FFF27EF5FFC4F328343
S11314A08F5F80930103863010F0109201030E9435
S11314B084031092470B1092460B94E09093EF0133
S11314C0109273051092CC0B1092E202109210034A
S11314D010920F03809150018D7F80935001809171
S11314E03F01882309F494C07EC0823008F448C0C8
S11314F0E091470BFF27EA5BF44F8281482F552781
S113150020914001822F8695869586958370992730
S11315108130910519F00297D1F409C0277E20612A
S113152020934001109241014093160110C0809114
S11315304101873760F4E0911B01F0911C01E80F31
S1131540F11D4083809141018F5F8093410180911F
S1131550470BE82FFF27EA5BF44F62818F5F80938C
S1131560470B833010F01092470B772780910F03BD
S1131570909110030E94C7019093100380930F036E
S11315808091460BE82FFF27EA5BF44F12838F5FAD
S11315908093460B833010F01092460B80917305B4
S11315A08F5F8093730534C01092470B1092460BE3
S11315B014E01093EF01109273051092CC0B10926B
S11315C0E2021092100310920F03809150018D7F5C
S11315D08093500181E00E94620980913F01882339
S11315E029F01093EF010E941F0412C0002381F020
S11315F081E00FCF80914001982F917080FDDBCE68
S1131600DDCE80914A0B9927382F222742E022CF42
S11316101F910F9108951F920F920FB60F921124EC
S11316202F933F934F935F936F937F938F939F93E6
S1131630AF93BF93EF93FF935F9B3DC06CB1E09179
S11316401103F09112033097F9F080915B0C9091A3
S11316505C0CE80FF91F6083019690935C0C8093F7
S11316605B0C20917E0C30917F0C8217930718F14C
S1131670109212031092110380913E058330D9F029
S1131680579810923E0517C06E3719F460E081E058
S113169010C0809150016D3721F482608093500115
S11316A00AC081FF05C08D7F8093500180E26827C6
S11316B080E00E94A209FF91EF91BF91AF919F91A9
S11316C08F917F916F915F914F913F912F910F90E7
S11316D00FBE0F901F901895982F8D57823068F485
S11316E08091500181608093500180E2892780932A
S11316F072058DE78093800102C09093800161E0C0
S113170070E080E891E00E94380499270895789465
S11317101F920F920FB60F921124FF920F931F93F3
S11317202F933F934F935F936F937F938F939F93E5
S1131730AF93BF93CF93DF93EF93FF93209167020F
S1131740309168028091CA0B9091CB0B281739070E
S113175080F4E091F502F091F602E20FF31F80812C
S11317602F5F3F4F30936802209367020E94310439
S1131770CDC01092F6021092F50210926A025698A9
S1131780FFB6F8948091500180FF0EC08E7F809345
S11317905001809172058093800161E070E080E8DF
S11317A091E00E943804AFC080917105843009F43F
S11317B08CC0853040F4823021F18330B8F581301B
S11317C009F09CC00DC0863009F48DC0863008F441
S11317D083C0873009F48EC0883009F08FC091C06F
S11317E08091F2020E946C0B082F83E080937105B4
S11317F06091F20280917A0C90917B0C0E94C70157
S113180010C08091DD0B0E946C0B082F83E0809345
S113181071056091DD0B80917A0C90917B0C0E9494
S1131820C70190937B0C80937A0C66C0E0919F0370
S1131830FF27EE0FFF1FE850FD4F80810E946C0BC5
S1131840082F10919F03C12FDD27FE01EE0FFF1F0C
S1131850E850FD4F608180917A0C90917B0C0E943E
S1131860C70190937B0C80937A0C2091EF022F5F39
S11318702093EF02113039F580914701E091420144
S1131880F0914301E80FF11DE0818F5F80934701E0
S113189090914601981730F482E08093F90240E079
S11318A050E002C04E2F5527DE01AA0FBB1FFD01D9
S11318B0E950FD4F8081823031F02F3F21F0A85054
S11318C0BD4F4C9319C084E012C080917A0C0E94E1
S11318D06C0B082F85E00BC080917B0C0E946C0B75
S11318E0082F86E004C00E946504082F87E08093D7
S11318F0710502C088E003C0002329F089E08093C9
S113190071050E9484038F2D99278FBFFF91EF915A
S1131910DF91CF91BF91AF919F918F917F916F9103
S11319205F914F913F912F911F910F91FF900F90D5
S11319300FBE0F901F9018951F920F920FB60F9223
S113194011248F9380919B0087FF02C080919C009B
S11319508F910F900FBE0F901F90189578941F923F
S11319600F920FB60F9211240F900FBE0F901F907D
S1131970189578941F920F920FB60F9211240F901E
S11319800FBE0F901F90189578941F920F920FB668
S11319900F9211240F900FBE0F901F9018957894FA
S11319A01F920F920FB60F9211240F900FBE0F903B
S11319B01F90189578941F920F920FB60F921124CE
S11319C08F939F9380918000909181009F918F913C
S11319D00F900FBE0F901F90189578941F920F923E
S11319E00FB60F9211242F933F938F939F932FB78A
S11319F0F89433278091EC029091ED020196909334
S1131A00ED028093EC022FBF9F918F913F912F9114
S1131A100F900FBE0F901F901895CF93DF93EC019A
S1131A2080913101882309F045C0A9EEBBE0FB0198
S1131A3081E201900D928150E1F742EE5BE08FEF7D
S1131A408093E30B8093E20B86E08093E80B809114
S1131A50D10B9091D20B892B21F55093D20B40934B
S1131A60D10B81E28093E60B80911D018823A9F0BC
S1131A7010921D0121E26FEF7FEF86E00E94980330
S1131A809927282F882349F081E080931D01109223
S1131A90D20B1092D10B222321F481E080933101E7
S1131AA001C0DA988091000190910101019711F42D
S1131AB00E943006CE01DF91CF910895AF92BF927C
S1131AC0CF92DF92FF920F931F93CF93DF935C012A
S1131AD0FC018281882359F4B0925A0CA092590CCB
S1131AE08281882309F083C01092300180C044238E
S1131AF009F475C0F501C080D1808091580184300B
S1131B0009F046C0C6010E94780520915801622F51
S1131B100E94E230492F9217D8F5992359F4809105
S1131B20FE029927019664E070E00E9402318093DE
S1131B30FE0229C08091FE02840F912D911D9C010B
S1131B4023703070E901CC0FDD1FCC0FDD1FC20FF5
S1131B50D31F019664E070E00E940231FC01EE0F95
S1131B60FF1FEE0FFF1FE80FF91FCF57DE4FEF5790
S1131B70FE4F85E0019009928150E1F74F5F80911B
S1131B8058014817B8F28091580181508093580148
S1131B90F09058018091FE028F0D912D911D83705C
S1131BA090708C01000F111F000F111F080F191FD7
S1131BB00F571E4FC6010E946E05F8019183808362
S1131BC0F6018585F8018283F6018085F801848316
S1131BD0F6018685F8018383F394F0925801F501A8
S1131BE0808191810E94BB05C5010E94DA05DF91C5
S1131BF0CF911F910F91FF90DF90CF90BF90AF9046
S1131C0008952F923F924F925F926F927F928F929C
S1131C109F92AF92BF92CF92DF92EF92FF920F9377
S1131C201F93CF93DF93CDB7DEB7AA970FB6F8947F
S1131C30DEBF0FBECDBF2C0119821A821B821C820B
S1131C401D821E821F8218868090000190900101DF
S1131C509401C4010297029708F442C0E2E0EE2E18
S1131C60F12C7FEF672E772E6FEF262E362E26C0AF
S1131C705FEF652E752E1FC0E016F10631F0C70127
S1131C80B8010E940231892B99F30F5F1F4F37016E
S1131C90B801882777FD8095982F0E94E82FA60128
S1131CA095010E94E22F18163CF78FEF68168FEF0C
S1131CB0780609F013010894E11CF11C8E149F04AA
S1131CC074F0B701882777FD8095982F0E94E82F3C
S1131CD00E944B305B016C0102E010E0D9CF91010E
S1131CE0C901990F880B982F3C8B2B8B8D8B8E8B76
S1131CF08F8B888F898F8A8F82010A5F1F4FF20131
S1131D008681682F772740E050E039960EC08081A5
S1131D109927982F882721813327822B932B881585
S1131D20990531F04F5F5F4F3296461757077CF3A2
S1131D300E94BF3269E170E00E9402311816190650
S1131D403CF4D8018C919927282F882309F00AC1E3
S1131D5081E0F80180838091000190910101E1E02C
S1131D60FF27EE0FFF1F3796E40DF51D8183892FA2
S1131D709927808306E02B893C894D895E896F8988
S1131D80788D898D9A8D0E94D62E2B8F3C8F4D8F06
S1131D905E8F6F8F78A389A39AA32091000130915D
S1131DA0010140E050E060E070E080E090E0822ECD
S1131DB0FB898F1AE1E0281508F0E0E0932EAC8946
S1131DC09A1AA1E0391508F0A0E0B92DBE1BEB2F3B
S1131DD0F1E09B1608F0F0E0AF2B9E2EA42EED89C7
S1131DE0AE1AB1E04A1508F0B0E0EA2DEA1BF1E0C2
S1131DF0AE1608F0F0E0BF2BAE2EB52EFE89BF1A4A
S1131E00A1E05B1508F0A0E0EB2DEB1BF1E0BE16A2
S1131E1008F0F0E0AF2BBE2EC62EBF89CB1AB1E07E
S1131E206C1508F0B0E0EC2DEA1BF1E0CE1608F0DA
S1131E30F0E0BF2BCE2ED72EE88DDE1AA1E07D1563
S1131E4008F0A0E0ED2DEB1BF1E0DE1608F0F0E069
S1131E50AF2BDE2EE82EF98DEF1AF1E08E1508F087
S1131E60F0E0EE2DEA1BA1E0EE1608F0A0E0FA2B5C
S1131E70EE2EF92EAA8DFA1AFF1A0B8D080D81E0A9
S1131E80BB8D0B1708F080E01C8D190DE1E0FC8D73
S1131E901F1708F0E0E0810F91E0811708F090E04F
S1131EA0E92B182F2D8D2A0DF1E08D8D281708F0C0
S1131EB0F0E08E2F820F91E0821708F090E0F92B6A
S1131EC0282F3E8D3B0DE1E09E8D391708F0E0E0B0
S1131ED08F2F830F91E0831708F090E0E92B382FC0
S1131EE04F8D4C0DF1E0AF8D4A1708F0F0E08E2FC6
S1131EF0840F91E0841708F090E0F92B482F58A143
S1131F005D0DE1E0B8A15B1708F0E0E08F2F850FCD
S1131F1091E0851708F090E0E92B582F69A16E0D28
S1131F20F1E089A1681708F0F0E09E2F960F81E098
S1131F30961708F080E08F2B7AA17F0D870F098315
S1131F401A832B833C834D835E839F838887F201AE
S1131F507996DE01119688E00D900192815009F482
S1131F60A1C1FACF843008F09DC12F5FD8012C9312
S1131F7020910001309101018C9199276091060113
S1131F807091070101970E940231FC01EE0FFF1FBF
S1131F903996E40DF51D2183232F33272083F20185
S1131FA07996FA87E987DE01119688E001900D920F
S1131FB08150E1F789809A80AB80BC80CD80DE803F
S1131FC0EF80F884F82DFF73FB871C861D861E8620
S1131FD01F86188A198A1A8A06E0282D392D4A2D57
S1131FE05B2D6C2D7D2D8E2D9F2D0E94592FAB883E
S1131FF0BC88CD88DE88EF88F88C098D1A8D0E9404
S1132000552D06E00E94D62E2BA33CA34DA35EA320
S11320106FA378A789A79AA7A0900001B0900101A7
S1132020CC24DD24EE24FF2400E010E02A2DAB892B
S11320302A1BE1E0A21608F0E0E03B2DBC893B1B23
S1132040A1E0B31608F0A0E0F32FFE1BEF2FF1E0A0
S11320503E1708F0F0E0AF2B3E2F4C2DBD894B1BF3
S1132060B1E0C41608F0B0E0E42FEA1BF1E04E172B
S113207008F0F0E0BF2B4E2F5D2DEE895E1BA1E032
S1132080D51608F0A0E0E52FEB1BF1E05E1708F091
S1132090F0E0AF2B5E2F6E2DFF896F1BB1E0E616CB
S11320A008F0B0E0E62FEA1BF1E06E1708F0F0E06C
S11320B0BF2B6E2F7F2DA88D7A1BA1E0F71608F099
S11320C0A0E0E72FEB1BF1E07E1708F0F0E0AF2B68
S11320D07E2F802FB98D8B1BF1E0081708F0F0E0FC
S11320E0E82FEA1BA1E08E1708F0A0E0FA2B8E2F50
S11320F0912FEA8D9E1B9F1B8B84820EE1E0FB8552
S11321008F1608F0E0E09C84930EA1E0BC859B163A
S113211008F0A0E0E90DF1E0E91508F0F0E0AF2BDC
S11321209E2EAD84A40EB1E0ED85AE1608F0B0E0AD
S1132130EA2FEA0DF1E0EA1508F0F0E0BF2BAE2E2D
S1132140BE84B50EA1E0FE85BF1608F0A0E0EB2F1B
S1132150EB0DF1E0EB1508F0F0E0AF2BBE2ECF84D1
S1132160C60EB1E0EF85CE1608F0B0E0EA2FEC0D14
S1132170F1E0EC1508F0F0E0BF2BCE2ED888D70E96
S1132180A1E0F889DF1608F0A0E0EB2FED0DF1E0F7
S1132190ED1508F0F0E0AF2BDE2EE988E80EF1E053
S11321A0B989EB1608F0F0E0EA2FEE0DA1E0EE1588
S11321B008F0A0E0FA2BEE2EFA88F90EFF0E0BA120
S11321C0080D81E0EBA10E1708F080E01CA1190DA9
S11321D0E1E0FCA11F1708F0E0E0810F91E0811716
S11321E008F090E0E92B182F2DA12A0DF1E08DA124
S11321F0281708F0F0E08E2F820F91E0821708F084
S113220090E0F92B282F3EA13B0DE1E09EA1391768
S113221008F0E0E08F2F830F91E0831708F090E03F
S1132220E92B382F4FA14C0DF1E0AFA14A1708F06C
S1132230F0E08E2F840F91E0841708F090E0F92BE2
S1132240482F58A55D0DE1E0B8A55B1708F0E0E064
S11322508F2F850F91E0851708F090E0E92B582F18
S113226069A56E0DF1E089A5681708F0F0E09E2FCE
S1132270960F81E0961708F080E08F2B7AA57F0DEA
S1132280870F09831A832B833C834D835E839F834B
S11322908887E985FA85DE01119688E00D90019220
S11322A08150E1F7AA960FB6F894DEBF0FBECDBFFA
S11322B0DF91CF911F910F91FF90EF90DF90CF901E
S11322C0BF90AF909F908F907F906F905F904F9052
S11322D03F902F9008952F923F924F925F926F926A
S11322E07F928F929F92AF92BF92CF92DF92EF92A2
S11322F0FF920F931F93CF93DF93CDB7DEB72E9743
S11323000FB6F894DEBF0FBECDBF2B833C834D8345
S11323105E836F83788789879A878AE092E00E9438
S11323206E319C878B871A82198222243324442499
S1132330552466247724882499249E878D87022D2A
S11323402B813C814D815E816F81788589859A8559
S11323500E94592FA22EB32E81E0A822BB24AB28C1
S113236091F0ED85FE85208231824282538264821F
S113237075828682978289819A8101969A8389835C
S11323803896FE87ED87F1E0AF2EBB24CC24DD2404
S1132390EE24FF2400E010E0222D2A0DE1E02215B6
S11323A008F0E0E0332D3B0DA1E0331508F0A0E088
S11323B0E30FF1E0E31708F0F0E0AF2B3E2F442DDC
S11323C04C0DB1E0441508F0B0E0EA2FE40FF1E061
S11323D0E41708F0F0E0BF2B4E2F552D5D0DA1E062
S11323E0551508F0A0E0EB2FE50FF1E0E51708F034
S11323F0F0E0AF2B5E2F662D6E0DB1E0661508F090
S1132400B0E0EA2FE60FF1E0E61708F0F0E0BF2BAA
S11324106E2F772D7F0DA1E0771508F0A0E0EB2F4C
S1132420E70FF1E0E71708F0F0E0AF2B7E2F882DDF
S1132430800FB1E0881508F0B0E0EA2FE80FF1E072
S1132440E81708F0F0E0FB2B992D910FF90F222EDD
S1132450332E442E552E662E772E8E2E9F2E90E4EC
S1132460291709F06CCF332309F069CF442309F00D
S113247066CF552309F063CF662309F060CF772335
S113248009F05DCFEE2309F05ACFFF2309F057CFAF
S1132490EB85FC85E050FE4F89819A81918380838E
S11324A0E050F240FC87EB87DF01AE5FBD4F9B81BC
S11324B09C938C81FD0181839D8192838E81838392
S11324C09F81948388858583998596838A8587836C
S11324D08B859C852E960FB6F894DEBF0FBECDBFBC
S11324E0DF91CF911F910F91FF90EF90DF90CF90EC
S11324F0BF90AF909F908F907F906F905F904F9020
S11325003F902F9008952F923F924F925F926F9237
S11325107F928F929F92AF92BF92CF92DF92EF926F
S1132520FF920F931F93CF93DF93CDB7DEB76097DE
S11325300FB6F894DEBF0FBECDBFDC01CB015C87C4
S11325404B87A050BE4FED91FC911197A050B24023
S1132550309719F40EEF1FEF0AC013E0EE0FFF1FC0
S11325601A95E1F7EA0FFB1F389700811181085093
S113257010401A8309831B821C821D821E821F82C3
S1132580188619861A86188A1F869E878D8765C0C5
S113259008E02B813C814D815E816F81788589853E
S11325A09A850E94D62EA22EB32EC42ED52EE62EA8
S11325B0F72E082F192FED85FE852191FE87ED87D3
S11325C030E040E050E060E070E080E02A2C222A15
S11325D03B2C332A4C2C442A5D2C552A6E2C662A1B
S11325E07F2C772A802E882A09812B813C814D817A
S11325F05E816F81788589859A850E94592FA22EE4
S1132600B32E2FEF31E0A222B322A3E0AA0CBB1C0D
S1132610AA95E1F782E99CE0A80EB91EF501808134
S1132620918122813381448155816681778182251C
S11326308B8393259C8324252D8335253E83462532
S11326404F83572558876825698771277A872F858F
S113265038892F5F3F4F388B2F878F859889EB857B
S1132660FC858E179F070CF493CF2B813C814D8101
S11326705E816F81788589859A850E946B11609649
S11326800FB6F894DEBF0FBECDBFDF91CF911F917F
S11326900F91FF90EF90DF90CF90BF90AF909F90FD
S11326A08F907F906F905F904F903F902F90089500
S11326B02F923F924F925F926F927F928F929F924E
S11326C0AF92BF92CF92DF92EF92FF920F931F933C
S11326D0CF93DF93CDB7DEB76C970FB6F894DEBF18
S11326E00FBECDBF4C011B821C821D821E821F8225
S11326F0188619861A8606E0602E712C680E791EDB
S1132700FC018681A82FBB27609100017091010113
S113271040E050E039960EC080819927982F882791
S113272021813327822B932B8617970731F04F5F34
S11327305F4F32964A175B077CF30E94BF3269E110
S113274070E00E9402311816190634F4D3018C91FA
S11327509927282F882349F581E0F301808380910C
S1132760000190910101E1E0FF27EE0FFF1F379672
S1132770E80DF91D8183892F9927808380910001B9
S1132780909101019C838B831D821E821F82188677
S113279019861A86F4017996DE01139688E00D9065
S11327A00192815009F4FDC0FACF843008F0F9C0D9
S11327B02F5FD3012C9320910001309101018C9162
S11327C09927609106017091070101970E940231D7
S11327D0FC01EE0FFF1F3996E80DF91D2183232F0D
S11327E033272083F4017996FC8BEB8BDE0113965F
S11327F088E001900D928150E1F780910001909161
S113280001019E8B8D8BA0915A01B0915B01BC8F0D
S1132810AB8F08E02B813C814D815E816F8178858F
S113282089859A850E94D62E222E332E442E552E2B
S1132830662E772E882E992EE7E0F0E0F88FEF8B46
S1132840EBE0F0E0EC0FFD1F8F89988DE80FF91F86
S1132850208208E0222D332D442D552D662D772D11
S1132860882D992D0E94592F222E332E442E552E19
S1132870662E772E882E992EAF89B88D1197B88F32
S1132880AF8BAF5FBF4FE1F648E050E0BE01655F3C
S11328907F4F8B8D9C8D0E9483129A8F898F8D8997
S11328A09E89990F880B982F8D889E88A82E8A82DE
S11328B008E0282D392D482F582F682F782F9A2D6E
S11328C00E94592F298342E050E0BE016F5F7F4F81
S11328D08B8D9C8D0E948312098D1A8D0E5F1D4F66
S11328E0DC01AE5FBD4FF80120804C903180FD01CA
S11328F06180F8015280FD018280F8017380FD013E
S11329007381F8019480FD015481F8016581FD0112
S11329103581F8014681FD019681F8012781FD0189
S11329208781A22CA424B32CB624C52CC824D72C6C
S1132930D726E92CE526F62EF326042F0927122F95
S113294018272A2D3B2D4C2D5D2D6E2D7F2D802F8C
S1132950912F0E946B11A98DBA8DFC018AE092E03F
S113296001900D920197E1F7E98DFA8DEE5FFD4F2D
S113297080818B8381818C8382818D8383818E830B
S113298084818F83858188878681898787818A87E7
S1132990EB89FC89DE01139688E00D900192815049
S11329A0E1F76C960FB6F894DEBF0FBECDBFDF9192
S11329B0CF911F910F91FF90EF90DF90CF90BF9038
S11329C0AF909F908F907F906F905F904F903F90CB
S11329D02F9008951F920F920FB60F9211242F93E8
S11329E03F934F935F936F937F938F939F93AF9393
S11329F0BF93EF93FF9383B783BF00B600FCFDCF73
S1132A0081B799270196AA27BB27209154013091B9
S1132A1055014091560150915701280F391F4A1F03
S1132A205B1F2093540130935501409356015093FA
S1132A30570178940E94AA06FF91EF91BF91AF913C
S1132A409F918F917F916F915F914F913F912F91C2
S1132A500F900FBE0F901F901895AF92BF92CF9218
S1132A60DF92EF92FF920F931F9380911201909146
S1132A701301A0911401B0911501B695A7959795EE
S1132A8087958093E7019093E801A093E901B093BF
S1132A90EA010E943402E090E701F090E80100911D
S1132AA0E9011091EA01A80197010E9415315B0127
S1132AB06C01AE0CBF1CC01ED11EA092E701B092E7
S1132AC0E801C092E901D092EA011092450B0E94FC
S1132AD0E404AB01BC0181E0E82E9601850182E0AB
S1132AE00E94C5041F910F91FF90EF90DF90CF904B
S1132AF0BF90AF90089580910D018130A1F4809131
S1132B003401813021F486E00E940D0209C0823034
S1132B1051F48091940580930D0183E080933401F6
S1132B2080E090E0089581E090E008950F931F9372
S1132B306BE380E00E94D50180ED97E00197019658
S1132B400197E1F769E380E00E94D50188EC90E009
S1132B50019701960197E1F70FB7F89411270E94A6
S1132B609C080FBF1F910F910895CF93DF938FB7E8
S1132B70F894C82FDD2780913201882309F591E06C
S1132B8090935201809151018D7F84608093510113
S1132B9080910A01843019F085E080930A019093B2
S1132BA0320180E00E940D028091290B8D7F809379
S1132BB0290BCFBF0E94961581E00E940D0201C02F
S1132BC0CFBF80E090E0DF91CF9108951F93982FBD
S1132BD080910A01843051F590930A018091340167
S1132BE08823A9F412E01093340110929405379AC3
S1132BF00E947B1580910D018823D9F081E0809398
S1132C00340110929405379A0E947B1518C0809164
S1132C1094058823A1F080E00E943303882379F48B
S1132C208091A00381608093A00309C09093E10B7D
S1132C3006C01093FB021092DE0B0E94BD0280E0DE
S1132C4090E01F9108951F93CF93DF93FA01422FD1
S1132C5086836183672F772760832FB7F8943327A0
S1132C6080910E0190910F012FBF8383892F9927A3
S1132C70828382E285838FB7F894282F332790913B
S1132C80510191FD04C080915201882321F42FBF8A
S1132C9081E090E069C0EF01C359DF4F92609093E7
S1132CA051014483F0937D0CE0937C0C1B821F82C2
S1132CB01E821D8280E88C832FBF1FB7F8948091F9
S1132CC0290B82608093290B80913201843019F49E
S1132CD082E00E940D028091290B80FD0BC00E94AE
S1132CE034026F7170706F5F7F4F709393056093C0
S1132CF0920506C081E090E090939305809392053D
S1132D00888129819927782F66273327622B732B93
S1132D1077FD05C0609160017091610102C060950A
S1132D207095198218826115710529F466E070E0C6
S1132D3080E090E010C08827992726E632E040E042
S1132D4050E00E94C330672F782F892F99276A5E3D
S1132D507F4F8F4F9F4F7093D50B6093D40B812F70
S1132D6099278FBF80E090E0DF91CF911F91089564
S1132D70CF93DF93582FFB01823018F081E090E06D
S1132D8031C0C82FDD27CC0FDD1FC75FDC4F888122
S1132D909981892B19F085E090E024C079836883B8
S1132DA0448380911001823018F480E090E01AC0CE
S1132DB0868160817727762F662721813327622BCE
S1132DC0732B50931001242FAF010E9423169927CF
S1132DD0282F882329F082E0809310011982188219
S1132DE0822F9927DF91CF910895CF93DF93EC0140
S1132DF00E944F08282F809168012817D1F0382F9E
S1132E0031503093680113C0822F992743E0880F13
S1132E10991F4A95E1F7DC01A956BE4FFC01E15622
S1132E20FE4F88E001900D928150E1F72F5F231748
S1132E3058F380914B0B90914C0B8C179D07A1F488
S1132E408FEF9FEF90934C0B80934B0B10924E0B94
S1132E5010924D0B10924F0B1092500B81E0809307
S1132E603E018DE00E940D02DF91CF910895809183
S1132E703201823069F480910A01843019F085E0CE
S1132E8080930A0181E08093320180E00E940D0268
S1132E9008951F920F920FB60F921124EF92FF9292
S1132EA00F931F932F933F934F935F936F937F934E
S1132EB08F939F93AF93BF93CF93DF93EF93FF933E
S1132EC0C4B1D5B178948FB7F8949927209196011D
S1132ED0322F3695317021708FBF222309F024C11F
S1132EE033988091FB02813021F0823009F050C187
S1132EF00AC0332351F0D0937005C0936F0587E067
S1132F000E940D0245C1332319F40E94BD0240C141
S1132F101092FB028091DE0B882309F039C1EFB6D1
S1132F20F89480910A01813099F0813030F0823038
S1132F30C1F0833009F09EC058C0E0910801F091BF
S1132F400901E359FF4FC1838D2F9927808392C0D4
S1132F50D093ED01C093EC0183E00E940D0282E066
S1132F6069C02091D30B2F5F2093D30B80910B0169
S1132F7090910C010C968C179D0740F48091EB0105
S1132F808F5F8093EB01882339F402C01092EB0128
S1132F908091290B80FF18C083E08093320187E081
S1132FA0809352011092C6041092C50410925F01DE
S1132FB010925E018AEA80935C0180935E0C0E9409
S1132FC04703BB9ABA9A56C0253059F40E9434027A
S1132FD06F7070706F5F7F4F70939305609392056D
S1132FE049C082E00E94E61545C080910B01909192
S1132FF00C019C013695279536952795821B930BDA
S11330008C179D07D0F482E00E940D0280910B0181
S113301090910C019C0153E0369527955A95E1F760
S1133020820F931FC817D90728F5D093ED01C093D9
S1133030EC0183E00E940D021DC08091D30B8F5FD1
S11330408093D30B8150863060F085E080930A0131
S113305081E08093320180E00E940D020E949C086E
S113306009C083E00E94E61580E590E0019701968F
S11330700197E1F78091E10B80930A01843059F0C4
S113308084E08093E10B82E08093FB021092DE0BDC
S11330900E94BD0245C080913401833009F040C0D4
S11330A080910D018823E1F58091A003882309F024
S11330B069C061C0EF2DE695E695E695FF274F2D93
S11330C05527E056FC4F9A012770307081E090E05C
S11330D002C0880F991F2A95E2F780952081282342
S11330E02083C093330111C02196C130D10511F45E
S11330F0C0E0D0E0FC2E8C2F0E9433038823D1F64D
S1133100C017D10789F74FEF50E0409394058FEF34
S113311080930D0181E08093340186E00E940D02CA
S11331208E2D99278FBF34C08FB7F89499278FBFFE
S11331302FB7F894332786B1582F5770482F407211
S1133140987D942B952B8074977B982B90619F7717
S1133150892F992786B9887D842B852B8773806175
S1133160992786B9887D842B852B877B806999274D
S113317086B92FBF0DC081E080930D0110923401F8
S11331803798CECF80913301082F1127E801ACCFB7
S1133190FF91EF91DF91CF91BF91AF919F918F916B
S11331A07F916F915F914F913F912F911F910F915B
S11331B0FF90EF900F900FBE0F901F9018951F92E5
S11331C00F920FB60F9211246F927F928F929F925B
S11331D0AF92BF92CF92DF92EF92FF920F931F9321
S11331E02F933F934F935F936F937F938F939F930B
S11331F0AF93BF93CF93DF93EF93FF931FB180916E
S11332005E0C8FB96091510162FD1095809152015D
S1133210883009F444C0893098F4843009F460C2D9
S1133220853038F4823009F478C1833009F02CC336
S1133230BFC1863009F4F6C2873009F025C315C032
S11332408B3009F4E1C08C3030F48930A9F18A3034
S113325009F01AC3CBC08D3009F415C18D3008F4C0
S1133260F2C08E3009F010C342C180915C0180939A
S11332705E0C8091C5049091C60401969093C60497
S11332808093C5042091D40B3091D50B82179307FA
S113329008F4FAC283E380935C0188E0F3C280916E
S11332A05C0180935E0C8CEC80935C0189E08093DC
S11332B052018FEF9FEF5FC2C0917C0CD0917D0CC7
S11332C020915C0120935E0C8091C5049091C6040A
S11332D001969093C6048093C5042C3C09F062C007
S11332E00E94AE013B014C01E0917C0CF0917D0CFD
S11332F0E359FF4F6783BB27A92D982D872D86831C
S1133300C401AA27BB278583892D9927AA27BB2710
S11333108483E0917C0CF0917D0CE359FF4F838111
S1133320ED56F0408823F1F184818D5FE80FF11DA3
S11333302081E1808281A3809927AA27BB27BA2F05
S1133340A92F982F8827332744275527522F4427FE
S113335033272227FF24002711278701FF24EE2487
S11333602E293F29402B512BBB24CC24DD242A2990
S11333703B294C295D29822B932BA42BB52B861931
S11333809709A809B9098383292F3A2F4B2F552769
S113339022839D014427552721838B2F9927AA2710
S11333A0BB278083E091C504F091C6048C819927E2
S11333B00796E817F907A0F480917C0C90917D0C96
S11333C0E80FF91F608160935C0180915E01909128
S11333D05F010E94C70190935F0180935E0154C214
S11333E080915E0180935C018AE04CC280915C0113
S11333F080935E0C80915E0190915F01892F9927E3
S113340080935C018BE013C080915C0180935E0C1F
S11334108091C5049091C60401969093C60480934C
S1133420C504049708F430C260FF08C08CE08093A0
S113343052011092C6041092C50426C2BB98BA98D1
S11334400E94F9011EC280915C0180935E0C809100
S1133450C5049091C60401969093C6048093C50454
S11334608130910529F4BB98BA980E94F9010CC2E5
S1133470049708F409C28DE0809352011092600C05
S113348010925F0CD6CF80915C0180935E0C80918A
S1133490C5049091C60401969093C6048093C50414
S11334A080915F0C9091600C20E0880F991F17FDAC
S11334B081603AEB8338930709F4D6C12F5F283033
S11334C011F0110FF2CF9093600C80935F0C8091F8
S11334D0C5049091C604429708F4D6C1E0917C0CCF
S11334E0F0917D0CE359FF4F82818E7FC9C184E046
S11334F00E940D028091290B8D7F8093290B80916E
S11335000A01843019F085E080930A0181E08093F8
S1133510320180E00E940D02B7C11A3A19F0153544
S113352009F09CC18091C5049091C60401969093C2
S1133530C6048093C504039758F083E08093520136
S11335401092C6041092C5041092600C10925F0C85
S113355091E08091290B81FF97C180FD0DC09923D3
S113356059F00E9434026F7070706F5F7F4F7093D8
S113357093056093920588C180919205909193057B
S1133580009709F481C10197909393058093920564
S1133590892B09F079C180910A01843019F085E002
S11335A080930A011092D30B82E00E94E6156CC14D
S11335B01A3A11F0153529F4812F9927982F882765
S11335C014C08091C5049091C60401969093C604DA
S11335D08093C5048130910569F4212F33278091AC
S11335E05F0C9091600C822B932B9093600C8093D2
S11335F05F0C4AC1079708F071C00E94AE013B01FD
S11336004C01C0915F0CD091600C9C2F8827212F16
S11336103327822B932B9093600C80935F0C07E0ED
S1133620CC0FDD1F17FDC16083E3CC3CD80709F044
S11336304FC0E0910801F091090184E080935201A8
S113364084E684831092C6041092C50410925F012C
S113365010925E0180910A01843019F085E0809314
S11336600A0182E080933201802F8770880F880FCF
S1133670880FE0915101E77CE82BE0935101E69536
S1133680E695E695E770FF27E25EFE4F8081992775
S113369087FD9095A92FB92F681A790A8A0A9B0A7F
S11336A0E0910801F0910901E359FF4F6782BB27BC
S11336B0A92D982D872D8683C401AA27BB2785832E
S11336C0892D9927AA27BB27848380E00E94E615C9
S11336D001500F3F09F4D8C0110FA2CF82E0A7CE4A
S11336E0E0910801F09109014481453650F082E0EF
S11336F0809352011092C6041092C5040E94371799
S1133700C3C080915F0C9091600C982F8827212F63
S11337103327822B932B9093600C80935F0C6695D8
S113372066956695677002C0969587956A95E2F7E7
S1133730BC018091C5049091C604E80FF91F608311
S1133740EC012196D093C604C093C504495F842E2E
S113375099248C169D0650F080915E0190915F0132
S11337600E94C70190935F0180935E01C815D9053B
S113377039F48BE690E09093C6048093C50484C02A
S1133780CD36D10509F080C0A0910801B09109019E
S1133790FD01E559FF4F8181208140E050E09927E8
S11337A0982F88273327822B932B20915E01309109
S11337B05F018217930711F441E050E0242F408306
S11337C0852F9927482F81838091510180FF3AC02A
S11337D0842F9927982F88273327822B932B892B83
S11337E089F18C91FD0141812FB7F89433276091C1
S11337F00E0170910F012FBF9927982F8827552705
S1133800842B952B86179707E9F486E08093520161
S11338101092C6041092C5040E944703BB9ABA9A38
S11338208AEA19C0E091C504F091C6043196F09378
S1133830C604E093C504E031F10538F00E94F901B3
S1133840BB98BA980E9462031FC0EB30F105E0F008
S1133850EB54FD4F849180935E0C16C01092C60405
S11338601092C50490E075CE9093600C80935F0C29
S1133870E0917C0CF0917D0CE359FF4F82818160D3
S113388082838EE080935201FF91EF91DF91CF917B
S1133890BF91AF919F918F917F916F915F914F9164
S11338A03F912F911F910F91FF90EF90DF90CF9058
S11338B0BF90AF909F908F907F906F900F900FBEAE
S11338C00F901F901895AF92BF92CF92DF92EF9214
S11338D00F931F935B016C010E94E404AB01BC01D4
S11338E021E0E22E9601850184E00E94C5041F9127
S11338F00F91EF90DF90CF90BF90AF900895CF924B
S1133900DF92EF92FF920F931F936C017B010E9451
S11339103402DC01CB01B6010E94EE30E80EF91E40
S113392000271127C801B7010E94631C1F910F9142
S1133930FF90EF90DF90CF9008950F931F93CF9354
S1133940DF93EC01E0913601FF27EE0FFF1FE65DE8
S1133950F44F00811181662329F060E870E080E86B
S113396090E033C08091350183FF41C0C359DF4FDC
S11339708A81CD56D04080FD3AC088819927982FFE
S1133980882729813327822B932B0E947904982F2F
S11339908F3F71F08EE0989FF0011124ED5EFC4F93
S11339A085858F5F8587853018F0CF010E943805A3
S11339B08DE00E940D02F801838181508383882366
S11339C039F060E270E080E290E00E947F1C3FC02A
S11339D00E945305809135018F7E8093350160E20A
S11339E070E080E290E00E947F1C40E02CC00E94C6
S11339F05305809135018F7E8093350160E270E03C
S1133A0080E290E00E947F1C88819927982F882764
S1133A1029813327822B932B0E947904982F8F3F7F
S1133A2089F08EE0989FF0011124ED5EFC4F8485AF
S1133A308F5F848785858F5F8587853018F0CF01F8
S1133A400E94380541E0BE01C8010E945E0DDF916D
S1133A50CF911F910F910895FF920F931F93CF93CE
S1133A60DF93082FEB01F42EE82FFF27EE0FFF1F43
S1133A70E75FFC4F11821082809110019927019613
S1133A8062E070E00E940231682F8093100110E020
S1133A90462F5527FA01EE0FFF1FE75FFC4FA08169
S1133AA0B181109799F0E62FE695E695E695FF2704
S1133AB0E152F44F808199279A012770307002C037
S1133AC0959587952A95E2F780FF0DC0CA01019666
S1133AD062E070E00E940231682F1F5F1230C1F66D
S1133AE01093100118C0609310016230A0F4FD011E
S1133AF0248133276C917727762F66278181992734
S1133B00682B792BAD0186810E942316882319F036
S1133B108CE00E940D02002319F0013079F405C0F5
S1133B206F2DCE010E949D1C09C0C05FD14031F4AD
S1133B3080913D01882311F010923D01DF91CF91D6
S1133B401F910F91FF900895AF92BF92CF92DF9291
S1133B50EF920F931F935B016C010E94E404AB018D
S1133B60BC0121E0E22E9601850180E00E94C5049B
S1133B701F910F91EF90DF90CF90BF90AF90089579
S1133B8080913201843061F1853019F1813081F501
S1133B908091A90381FD2CC090E080915D018F315B
S1133BA008F091E0992381F0809160019091610186
S1133BB0892B29F460E07AE080E090E00EC06EE1A9
S1133BC070E080E090E009C060E870E080E090E0A0
S1133BD004C061E070E080E090E00E94A41D0895BC
S1133BE06091600170916101882799270E94A41D4A
S1133BF00895AF92BF92CF92DF92EF92FF920F930C
S1133C001F93CF93DF935B016C01C0E0D0E0E1EA46
S1133C10F3E0608561FF76C1208131814281538167
S1133C20E480F58006811781D601C501821B930BC0
S1133C30A40BB50B8E159F05A007B10708F462C14C
S1133C4060FF03C06D7F608708C02E0D3F1D401FBD
S1133C50511F2083318342835383C33009F4A9C0A5
S1133C60C43030F4CC2359F0C23009F051C142C001
S1133C70C43009F4AAC0C53009F04AC1AFC08FB737
S1133C80F894C82FDD271C2F809132018430B9F0BD
S1133C908530F9F0813051F590E080915201833004
S1133CA009F491E0992311F580910A01843019F007
S1133CB085E080930A0181E00E94E61517C085E043
S1133CC0809332011092D30B69E380E00E94D50106
S1133CD00DC00E94F90183E00E94E61580E590E0A2
S1133CE0019701960197E1F7CFBF12C10E94C01D51
S1133CF01FBF0EC180913B01882309F409C1809143
S1133D003C01882309F404C18091450B882349F5BB
S1133D108DE00E940D028EE00E940D02A09012011F
S1133D20B0901301C0901401D09015018091E70167
S1133D309091E801A091E901B091EA01A81AB90AA9
S1133D40CA0ADB0A81E08093450B0E94E404AB01BC
S1133D50BC01E1E0EE2E9601850182E00E94C504DB
S1133D60D7C08091120190911301A0911401B091D8
S1133D701501880F991FAA1FBB1F809312019093EE
S1133D801301A0931401B09315018150904DA740E5
S1133D90B04060F080E090EDA7E0B0E080931201C5
S1133DA090931301A0931401B09315010E942D1553
S1133DB0AFC080913B01882309F4AAC080913C01E3
S1133DC0882309F4A5C08DE006C0809135018F7E5B
S1133DD0809335018AE00E940D029AC080913001DF
S1133DE0882309F095C061E283E59BE00E942406E4
S1133DF0FC0180E090E0DF0159961D920196883025
S1133E009105D9F780910401909105018383892F4D
S1133E10992782838091040190910501019660E0C5
S1133E207DE70E94EE3090930501809304018AE0BF
S1133E30858314821682809100019091010181830F
S1133E40892F9927808386E48087178280910201D5
S1133E50909103018130910521F4CF010E9439062C
S1133E600CC08230910521F4CF010E94010E05C0DF
S1133E70039719F4CF010E9458138091350181FFF3
S1133E803FC089E28093570B80910001909101011A
S1133E9080935F0B892F992780935E0B8091660135
S1133EA08F5F8093660181508093600B8EEE8093C8
S1133EB0610B10925B0BE091590CF0915A0C309706
S1133EC0F9F083E59BE09183808312828EE1838302
S1133ED0CF010E948B06882399F48091350182FFDB
S1133EE005C084FD03C08AE00E940D0210925A0CA2
S1133EF01092590C0E94300681E08093300108C072
S1133F00DA9806C021963996C630D10509F081CEDB
S1133F1089E00E940D02DF91CF911F910F91FF90D4
S1133F20EF90DF90CF90BF90AF900895AF92BF9283
S1133F30CF92DF92EF92FF920F931F930E94E404BB
S1133F405B016C018FB7F8949927109200038FBF1F
S1133F50FFEFEF2EFFEFFF2EFFEF0F2FFFE71F2FD7
S1133F6060E0E1EAF3E0808581FF1CC080819181FB
S1133F70A281B381A6019501281B390B4A0B5B0B67
S1133F80DA01C9012481358146815781281B390B07
S1133F904A0B5B0B2E153F05400751071CF47901B2
S1133FA08A0161E0399633E0E73DF307E1F66623E1
S1133FB0D9F01E141F04100611062CF0C601B50119
S1133FC00E94F91D11C0E092CD0BF092CE0B00932C
S1133FD0CF0B1093D00B81E080939501A80197013A
S1133FE0C601B5010E942D071F910F91FF90EF901C
S1133FF0DF90CF90BF90AF9008953F924F925F9221
S11340006F927F928F929F92AF92BF92CF92DF92E4
S1134010EF92FF920F931F93CF93DF93CDB7DEB749
S113402064970FB6F894DEBF0FBECDBFE82FFF270D
S1134030E731F10510F00C947929EA5BFF4FEE0F9C
S1134040FF1F0590F491E02D09948091DF0B8823E4
S113405011F40C94792910E001E0D4C58091EE02AA
S1134060882311F00C942C290C9479290FB7F89417
S113407011270E94C01D60C18FB7F8949927209121
S113408032018FBF222339F410923B018091350114
S11340908B7F0C94612981E080933B0180913C01EA
S11340A0882311F00E94340280913501846080934A
S11340B0350190E080913801882309F491E0992337
S11340C019F48AE00E940D028FB7F894282F332741
S11340D0922F809171058A3031F08091EF01843004
S11340E011F02FBF04C09FBF80E10E940D02809198
S11340F035018260809335018FB7F8949927209118
S11341000E0130910F018FBF30938D0520938C05E4
S113411080913C018823C1F481E080933C0180E8D4
S113412090E0A0E0B0E08093120190931301A0937B
S11341301401B09315010E942D1540E050E260E097
S113414070E083E00E94AB0880910001909101012E
S113415081309105D1F420914B0B30914C0B81E0CF
S11341608093590180918C0590918D0590934C0B0F
S113417080934B0B10924E0B10924D0B2F5F3F4FC1
S113418011F00C9479290C947629029711F00C946F
S1134190792940ED57E060E070E085E00E94AB08CB
S11341A00C9479291FB7F8948091290B81FD06C0DE
S11341B08091600190916101892BA1F48091320179
S11341C08450823098F580910A01843019F085E09A
S11341D080930A0181E08093320180E00E940D0205
S11341E021E025C090E080915D018F3108F091E0DD
S11341F09923E1F090E080915201833009F491E039
S11342009923A1F40E94930881E0809352016F984E
S1134210B89AC09880910A01843019F085E080939F
S11342200A0184E0809332010E94C01D20E0812FA6
S113423099278FBF222311F40C9479290E94961593
S11342400C9479298FB7F89499272091EC01309137
S1134250ED018FBF80915301E82FFF27EE0FFF1F61
S1134260E058F34F318320838F5F8093530189306B
S113427010F01092530180915D018F3118F48F5F1B
S113428080935D01DE011396E0E8FCE082E1019099
S11342900D928150E1F760E08E010F5F1F4F41E006
S11342A050E0DE011596E52FFF27EE0FFF1FE00F0C
S11342B0F11F2D913C91119782819381821793076D
S11342C008F4542F4F5F1296493069F7E52FFF2702
S11342D0633041F0EE0FFF1FE00FF11F13821282D3
S11342E06F5FDDCF60910B0170910C0188279927D6
S11342F0B5E0660F771F881F991FBA95D1F7EE0FA7
S1134300FF1FE00FF11F2281338144275527220F1D
S1134310331F441F551F620F731F841F951F0FB750
S1134320F894112722E230E040E050E00E94153179
S113433030930C0120930B010FBF0C9479298FB794
S1134340F894992740917C0C50917D0C2091510157
S11343502D7F2093510122E0209352011092C60434
S11343601092C5048FBF80911001823010F00C941C
S11343707929E82FFF27EE0FFF1FE75FFC4F6081CD
S113438071816417750711F00C94792940E075C4A4
S11343908FB7F894282F332780915201853019F074
S11343A02FBF0C947929C0900801D09009012FBF28
S11343B0F601A481E559FF4F818120819927982F27
S11343C088273327822B932B019709F0FDC2F6012E
S11343D0808141812FB7F894332760910E01709149
S11343E00F012FBF9927982F88275527842B952BAA
S11343F08617970761F0808121819927982F882754
S11344003327822B932B8F5F9F4F09F049C7F60107
S113441086819927803721F0813709F0D5C28CC174
S1134420D6018C91F60121819927982F882733276B
S1134430822B932B8F5F9F4F09F08CC0F6018281F2
S113444023819927F82EEE243327E22AF32A0781C1
S11344500E944707C7010E9479048F3F21F0F601AB
S1134460608577270CC00E94FF07182F8F3F51F0FB
S1134470B7010E941108F60160857727812F0E94F9
S113448048071CC087E30E942608182F8F3F09F4B1
S11344905FC09927880F991FFC0153E0EE0FFF1F9F
S11344A05A95E1F7E81BF90BED5EFC4F8081918191
S11344B00E94F516B701812F0E9411084FE0942E37
S11344C0902209F445C0F6012481253618F080E0D5
S11344D090E002C0C60107968C01020F111D83E013
S11344E0989EC0011124081B190B8FB7F8949927C3
S11344F060900E0170900F018FBFBB2483E0B89EC3
S1134500F0011124E00FF11F808121819927982F58
S113451088273327822B932B86159705B1F4A28025
S1134520C7010E9479048F3F81F09927880F991F52
S1134530FC01B3E0EE0FFF1FBA95E1F7E81BF90B9E
S1134540ED5EFC4FA18686E08783B394B914B1F67F
S11345500E944707C6010E948408182F682FC601CD
S11345600E940B057C01153009F02EC2F601128160
S1134570938060E4C6010E946F08382E57010894A6
S1134580A11CB11CF701818125010894411C511C17
S1134590F50121819927982F88273327822B932B84
S11345A08F5F9F4F09F4C0C0812F9927182F0027D0
S11345B0892D9927082B192BE3E08E2E912C8E0C34
S11345C09F1CF701838174E0672E712C6E0C7F1C95
S11345D024819927982F88273327822B932B892B83
S11345E051F5C8010E9479048F3F11F50E94FF071D
S11345F08F3F11F0B8011AC080E00E942608F82EFF
S1134600FFEF8F17A9F09927880F991FFC0143E04A
S1134610EE0FFF1F4A95E1F7E81BF90BED5EFC4F27
S1134620808191810E94F516B8018F2D0E94110896
S1134630C8010E94AB04D4019C90F3018080D50191
S1134640BC90F201A080C8010E9491047C01C801C1
S11346500E944F08482F8A3009F43FC0892D9927BA
S1134660782F6627882D9927682B792B8B2D9927EE
S1134670382F22278A2D9927282B392B80916801DE
S11346804817D1F4F2E3EF16F10438F5E42FFF27CD
S1134690B3E0EE0FFF1FBA95E1F7E956FE4F118321
S11346A00083338322837583648381E08683178246
S11346B04F5F4093680111C0E42FFF27A3E0EE0F82
S11346C0FF1FAA95E1F7E956FE4F11830083338358
S11346D022837583648381E086838091110188231A
S11346E019F5C8010E944F08E82F80916801E81766
S11346F048F4FF2753E0EE0FFF1F5A95E1F7E95600
S1134700FE4F37828091500B882311F0332049F0FB
S113471080914B0B90914C0B8017910729F4332017
S113472019F08DE00E940D0260E8C6010E946F0836
S1134730882309F449C13AC1F601968480858F5FC4
S11347408087A53608F040C1C6010E94780520E0A4
S113475090915801891708F421E0222309F034C10B
S113476010913801812F9927E82E8823B9F1C601C9
S11347700E946E055C01F0903601F10EFA94EA9401
S1134780FCE0FF1510F0EF2D02C0EF2DED50FF27D8
S1134790EE0FFF1FE65DF44F0190F081E02D0081E4
S11347A01181C8010E946E058A159B0509F07EC51A
S11347B0F8019585F6018585981709F077C5F80104
S11347C09085F6018085981709F070C5F8019685E3
S11347D0F6018685981709F069C5F6C080915901DC
S11347E0F6014481882391F04850042F1127602F4B
S11347F0C6010E942406BC01FEEE9F1609F0E4C027
S1134800402FC6010E940D0D6C01DEC04850642F7C
S11348107727C6010E942406AC012EEE9216F9F405
S11348208FB7F89499272BB331E023272BBB8FBF85
S113483080910201909103018130910521F4CA0114
S11348400E9439060CC08230910521F4CA010E94ED
S1134850010E05C0039719F4CA010E94581380E0A1
S11348602091FD02222309F481E0882309F0ACC0E1
S11348709091FC02992309F481E0882309F0A4C0F3
S1134880992309F4A1C08091E00BE82FFF27EE0FD4
S1134890FF1FEE59F34F0081118111821082915054
S11348A09093FC028F5F8093E00B8C3011F4109294
S11348B0E00B0115110509F487C0222309F484C013
S11348C08091EB02E82FFF27EE0FFF1FEC58FA4F01
S11348D0E080F1801182108221502093FD028F5FCD
S11348E08093EB028C3011F41092EB02E114F1048A
S11348F009F46AC087E7D7011D928A95E9F7EDE6C6
S1134900F0E0CE0EDF1E8AE0D6011D928A95E9F70B
S1134910E3E9FFEFCE0EDF1ED801CD92DC928FEFDC
S1134920F80182838EE18383C8010E948B06882369
S113493089F5CE0101960E94F905882311F5F60147
S1134940818522859927982F88273327822B932BBB
S113495029813A8128173907A0F080E890E0A0E087
S1134960B0E08093120190931301A0931401B093CB
S113497015010E942D1560E870E080E890E00E9427
S11349807F1C8091CD0381FD03C08AE00E940D024B
S113499067011AC0C7010E94BB05C8010E94DA055D
S11349A013C0F60187818078803871F480E890E044
S11349B0A0E0B0E08093120190931301A09314013E
S11349C0B09315010E942D151FB7F894C114D1049A
S11349D021F0D0920901C0920801809152018530E2
S11349E039F482E0809352011092C6041092C504F7
S11349F00E943717812F99272DC42FB7F894332796
S1134A008091940580930D0183E0809334012FBF3E
S1134A1080910D01882309F06CC482E08093FB022D
S1134A201092DE0B0E94BD0264C41092FB0261C4AA
S1134A3080919501882361F52091CD0B3091CE0BA7
S1134A404091CF0B5091D00BEFB7F894FF276091B2
S1134A508E0570918F058091900590919105E0905D
S1134A606201F090630100916401109165016E0D83
S1134A707F1D801F911FEFBF2093CD0B3093CE0B72
S1134A804093CF0B5093D00B109295010E942D07A9
S1134A900E94E4040E94F91D2CC40E94961F29C49C
S1134AA08091350184FD25C490E0809138018823EC
S1134AB009F491E0992309F01CC4809159018823D9
S1134AC059F420E080914B0B90914C0B8F5F9F4FDA
S1134AD009F021E0222331F0CE0101960E94F9056C
S1134AE0882339F060E177E280E090E00E94631C63
S1134AF000C4E0913601FF27EE0FFF1FE65DF44F7F
S1134B00C080D180D601ED91FC91F48000914B0BD3
S1134B1010914C0BCF010E94780520E09091580130
S1134B20891708F421E0222309F0D6C380915901A2
S1134B30D601ED91FC91882359F1B684A091F3023A
S1134B40B091F40287E701900D928150E1F7009152
S1134B50F3021091F402F80184818850E82EFF24B6
S1134B606E2DC8010E942406BC01FEEEBF1629F476
S1134B704E2DC8010E940D0D8C011093F402009378
S1134B80F30260E0D6018D919C910E949D1CB1C3FB
S1134B9089819A818287892F99278187D601ED910E
S1134BA0FC91119787818F73878380913501886089
S1134BB08093350180FF0AC0ED91FC918781806468
S1134BC08783809135018E7F80933501D601ED91E5
S1134BD0FC910183812F9927808381E786834F2D60
S1134BE05527BF0180E00E94B8169927882309F44D
S1134BF065C3823009F07DC3D601ED91FC9184E652
S1134C00848374C32091DF0B802F822329F1E12F49
S1134C10FF27EE0FFF1FE75FFC4F40815181118298
S1134C201082802F809528232093DF0B112319F005
S1134C30113091F405C063E0CA010E949D1C3BC37E
S1134C40405F514009F037C380913D01882309F446
S1134C5032C310923D012FC31F5F183008F049C3BF
S1134C60000FD0CF80911001E82FFF27EE0FFF1F18
S1134C70E75FFC4F6081718141E00E942C1D39C3C4
S1134C8080915901882309F034C3AA24BB245FEF1F
S1134C90E52EF52E4FEF842E942ECC24DD2443C034
S1134CA0022F112733E0000F111F3A95E1F709563F
S1134CB01E4FF80122813381FFEF2F3F3F0781F11F
S1134CC080918C0590918D052817390749F1D801F9
S1134CD08D919C910E9491043C01F801648175813D
S1134CE0AC01460F571F2081318180914B0B90916D
S1134CF04C0BA7812817390741F470934E0B60932E
S1134D004D0BA093500B4A010BC0AA2349F4F2E3C4
S1134D106F16710428F44E155F0510F458017A01DA
S1134D200894C11CD11C2C2D80916801C81608F46C
S1134D30B7CF2FEFE2162FEFF20609F47AC03FEF58
S1134D4083163FEF930691F08091500B882341F036
S1134D5080914D0B90914E0B0A96E816F90630F0AF
S1134D60C7010F968815990508F063C08091D90B87
S1134D709091DA0BA091DB0BB091DC0B0196A11D95
S1134D80B11D8093D90B9093DA0BA093DB0BB093F6
S1134D90DC0B80914B0B90914C0B0E9479048F3F5C
S1134DA081F09927880F991FFC0103E0EE0FFF1F84
S1134DB00A95E1F7E81BF90BED5EFC4F8581877FCF
S1134DC08583D5018D919C910E94AB04F50180816E
S1134DD091810E9479048F3F41F0EEE08E9FF001B3
S1134DE01124ED5EFC4F15861486D5018D919C919E
S1134DF090934C0B80934B0BF50184819581909398
S1134E004E0B80934D0B87818093500BC4018E19F8
S1134E109F09459770F080E890E0A0E0B0E08093AF
S1134E20120190931301A0931401B09315010E94F1
S1134E302D1580913E01882369F4FFEF8F16FFEF53
S1134E409F0641F42FEFE2162FEFF20619F08AE0E5
S1134E500E940D0210923E014CC280913D018823B4
S1134E6009F047C2E091F002F091F10210828091C2
S1134E704B0B90914C0BE091F002F091F102828384
S1134E80892F9927818380915901882329F0809162
S1134E904D0B90914E0B20C080914B0B90914C0B7D
S1134EA000914D0B10914E0B3FEF8F3F930781F410
S1134EB0E091F002F091F1020483812F992783831A
S1134EC0E091F002F091F1028081806880830CC04F
S1134ED00E949104800F911FE091F002F091F10281
S1134EE08483892F99278383F7EFCF2EF1E0DF2E78
S1134EF068E0C60107970E940B05E5E0EE2EF12C51
S1134F00E80EF91EAA2440E000E010E073E0B72E9A
S1134F1080913A0199270196800F911F6AE070E011
S1134F200E9402319C019927880F991FDC0153E0EC
S1134F30AA0FBB1F5A95E1F7A81BB90BAD5EBC4F76
S1134F40FD018581992780FF15C081FF13C08D91D4
S1134F509C9111974B9DB00111246E0D7F1DFB0197
S1134F608183892F99278083FD018085FB018283BA
S1134F704F5FA22E0930110521F00F5F1F4F4F30F4
S1134F8038F2A0923A01809139018F5F8093390100
S1134F908150F6018183842F8F708093F7018FEF06
S1134FA08093F1018093F00180E78093F60183E020
S1134FB0489FC0011124895F482F552760EF71E095
S1134FC081E00E94B8169927882309F47DC18430B2
S1134FD009F08FC110923B018CC18FB7F8941092E5
S1134FE05D0C2091710540E0283009F441E030E087
S1134FF0293009F431E0442311F4332351F01092A1
S11350007105E0919F03FF27EE0FFF1FE950FD4F4D
S1135010108299278FBF442311F4332331F19FB7B2
S1135020F8948091DD0B8F5F8093DD0B8091F20209
S1135030833479F42091020380910103821779F07B
S1135040822F8F5F80930203863048F01092020310
S113505006C0A0E0442309F4A1E071E002C0A0E08E
S113506070E0892F99278FBF06C0222311F0FF24F7
S11350706DC0A0E070E08FB7F894992720913F01AC
S11350808FBF222341F08FB7F89499272AE0209309
S113509071058FBF42C08FB7F89499276091F702CA
S11350A04091F9028FBF8FB7F894282F332750E02F
S11350B09091010380910203981709F451E02FBFE6
S11350C0552341F5662331F55FB7F89482E0809368
S11350D0F7028FB7F894282F332740E0909101030B
S11350E080910203981709F441E02FBF442311F083
S11350F080E006C0E0910203FF27EF5FFC4F82814E
S11351008093F80283E48093F20210929F03852F28
S113511099270EC04150423010F0FF240CC08FB7C5
S1135120F894992725E42093F20221E020939F0329
S11351308FBF11E0F12E772349F08FB7F8949927A8
S1135140A09348018FBF83E10E940D028FB7F894AA
S1135150082F1127809171058A3009F4B9C00FBF57
S1135160FF2009F4C6C02FB7F894332710927B0CA4
S113517010927A0C1092EF0281E0809371052FBF98
S11351800E946504882309F4B4C08FB7F894992762
S113519029E0209371058FBF0E948403AAC056980A
S11351A0579810923E0510926A02539A549A579A4D
S11351B08FB7F8949927109271051092EF014AC0A5
S11351C082E195C05398549894C01092450110926E
S11351D044018FB7F8949927409148018FBF80917B
S11351E04901811143E020914201309143018091B2
S11351F04A01882309F07DC080911D01882309F0AC
S113520078C06091D10B7091D20B6217730709F0CB
S113521070C043C08FB7F894992720914D01309105
S11352204E01409167018FBF8FB7F894E42FFF2799
S1135230EE0FFF1FE95EFE4F318320832091400172
S1135240442311F02B7F01C02D7F20934001109245
S11352504B0199278FBF4DC021E0E1EDFBE0909118
S1135260EE02822F892339F011821082822F8095D9
S113527098239093EE0232963BE0E13EF307C9F1A6
S1135280220FEDCF80911D01E82FFF27EE0FFF1FA6
S1135290EF52F44F6081718141E00E94F20329C012
S11352A0F6018681813709F08FCB7BCBFA94EE200F
S11352B009F494CA64CA000F1F5FA4CC809135011D
S11352C080618093350115C081E080933D0111C058
S11352D00E941F040C949C210E945305D6018D91B9
S11352E09C910E94BB05C6010E94DA058AE00E94D7
S11352F00D0264960FB6F894DEBF0FBECDBFDF91EA
S1135300CF911F910F91FF90EF90DF90CF90BF90BE
S1135310AF909F908F907F906F905F904F903F9051
S113532008958091D60B8F3FB1F0282F3327F901D0
S1135330E759FE4F80818093D60B8F3F11F4809301
S1135340610C8FEF80832F3F31F0822F0E94FD1F6D
S113535081E090E0089580E090E008952F923F92DC
S11353604F925F926F927F928F929F92AF92BF9271
S1135370CF92DF92EF92FF920F931F93CF93DF931D
S1135380CDB7DEB769970FB6F894DEBF0FBECDBFB9
S1135390EFB6EF8AF89447E150E06FEF70E089E6EA
S11353A091E00E94CF328FEF8093D60B8093610CF3
S11353B081E08EBD88E080BF83E083BF8CB59DB55E
S11353C04AE72CB53DB52817390708F44150442362
S11353D011F0C901F6CF92B782B78917E9F32CB55A
S11353E03DB592B782B78917E9F38CB59DB5821B99
S11353F0930B4096F5E096958795FA95E1F790938F
S1135400D80B8093D70B13BE83B78EBD8EB580BFE8
S113541012BE1DBC1CBC8FEF86BF86B780937C0078
S113542080B7992787709070892BD1F7D29AD19A37
S1135430D09ADA9AD99AD89A15BA8FEF84BBD498AD
S1135440DC98109289001092880080917D0084601D
S113545080937D0080918A00887F826080938A0097
S11354601DBC1CBC87B7846087BF8EB5887F8460F1
S11354708EBD16B8D6988C9A8E9A8F9A949A979ACB
S1135480969A6FE380E00E94D50160E08BE00E9471
S1135490D501B998BF98BB98BA9880E285BF0E949D
S11354A091298823E1F712E006E06091D70B70910F
S11354B0D80B88279927ECE0660F771F881F991F60
S11354C0EA95D1F720E031EE40E050E00E9415313A
S11354D02150304029B9832F9927809390001BB91C
S11354E0009395001AB82093990080939800109324
S11354F09B0000939D0010929A0084E490E09093A6
S1135500520B8093510B1092F7021092F9028AE029
S1135510809371051092EF021092F2021092DD0B4B
S113552010927B0C10927A0C10925D0C10929F03D7
S11355301092470B1092460B84E08093EF01109277
S113554073051092CC0B1092E20210921003109289
S11355500F0310920203109201031092FE021092A4
S11355605801E2E6FCE08FE395E081939193049681
S11355700CE0EA37F007C9F78CE08093FC02109244
S1135580E00BE4E7F5E085E995E081939193895890
S11355909F4F15E0EC38F107C1F78CE08093FD02D2
S11355A01092EB0210923B0110923C011092D90B25
S11355B01092DA0B1092DB0B1092DC0B1092590153
S11355C08FEF9FEF90934C0B80934B0B10924E0BED
S11355D010924D0B10924F0B1092500B10926801C9
S11355E062E680EF91E00E940B059093F1028093B4
S11355F0F00283EE92E090935A0C8093590C87EC5E
S113560094E09093F4028093F30210926601E8E12F
S1135610F3E010823E9623E0E43AF207D1F780B734
S1135620886080BF8BE083BF86EE81BF87B78260CE
S113563087BF0E94AA068091000190910101019602
S1135640AA27BB278093E7029093E802A093E9027C
S1135650B093EA021092A00380915101816080937B
S113566051016B986A986F9A6E9A6AE380E00E947F
S1135670D5016BE380E00E94D50180ED97E00197AE
S113568001960197E1F780E88093FF0260E88BE0E0
S11356900E94D50160E984E00E94D50160E08FE0BA
S11356A00E94D5016FE680E10E94D50165E581E1A4
S11356B00E94D50161E083E10E94D50145EC52E0EE
S11356C0598F488F1C821D821E821F8222243324FC
S11356D02101188619861A861B868FEF9FEFAFEF7C
S11356E0BFE78C879D87AE87BF87198A188A1A8A75
S11356F096E099831B821A82E88DF98DE590F590E6
S11357000591149160E070E08EE89AEDA80197018C
S11357100E94153120FF04C02F5F3F4F4F4F5F4F52
S113572021FD08C01B8A1C8A1D8A1E8AAA24BB2448
S113573065010FC0D801C701B695A79597958795C0
S11357408B8B9C8BAD8BBE8BA12CF0E2BF2EC12C1E
S1135750D12CE2E05695479537952795EA95D1F7F0
S1135760DA01C9017EE0880F991FAA1FBB1F7A9531
S1135770D1F78A0D9B1DAC1DBD1D612C60EE762EEC
S11357806FEF862E6FEF962E680E791E8A1E9B1E73
S113579080509042A044B04080509C49AF4BB040F0
S11357A008F05EC0AA81BB81A751BD4FFD01859160
S11357B09491AA27BB2764015301A81AB90ACA0AFB
S11357C0DB0AD601C50180509040A044B04080500F
S11357D09C49AF4BB04008F043C0CA01B901A801CD
S11357E097010E94C330EB88FC880D891E896E0DD9
S11357F07F1D801F911F9B01AC01205F39444240F3
S1135800504060507048834A964397FF07C0909574
S11358108095709561957F4F8F4F9F4FEC84FD84E9
S11358200E851F856E157F0580079107CCF40A81CC
S11358301B8105501D4FF801E590F490F98AE88A20
S11358402C833D834E835F8313012401A886B9868C
S1135850CA86DB866C877D878E879F87F980FA8A64
S1135860088D198D0C5F1F4F198F088F19811F5FC9
S113587019832A813B812E5F3F4F3B832A831F304C
S113588009F03ACF3A89332309F46EC0622D83E0DC
S11358900E94D5019927852D742D632D82E00E94E5
S11358A0D501B2018827992781E00E94D501688536
S11358B086E00E94D501E884F9840A851B8599272E
S11358C0812F702F6F2D85E00E94D501B8018827A4
S11358D0992784E00E94D501688988E00E94D50157
S11358E008891989612F772787E00E94D5012C81C7
S11358F03D814E815F81203065E636076DEC4607B9
S11359006DE1560798F420503448474D574128F428
S113591084E88093440B81E904C084E48093440BBD
S113592081E88093690210E702E008C08CE8809364
S1135930440B83EF8093690210E202E36091440B0D
S113594089E00E94D501612F82E10E94D501602F78
S11359508AE00E94D5019A89990F990F990F9A8B21
S1135960692F8CE00E94D50160E08BE00E94D50194
S11359706FE382E40E94D50161E180E00E94D501D9
S11359800E94C90861EE80E00E94D501609169021D
S113599089E00E94D50160E08BE00E94D5010E945D
S11359A0C9080E94F9010E949308E0E8FCE080E243
S11359B091E081939193ACE0E239FA07D1F70E9428
S11359C091298823E1F7BF898B2F99278FBF78947A
S11359D083E08093FF020E94B5158FB7F894482F97
S11359E0552748C087B7992783709070892B19F47D
S11359F0E5E0F0E013C080B7992787709070892B99
S1135A00D1F781B792B7891B8C3030F082B7853FCC
S1135A1018F4E3E0F0E002C0E2E0F0E087B7887B4E
S1135A20C1F480917D008B7FA1F46E9912C08AB17C
S1135A3090919A00892B887161F48091740082FDA1
S1135A4008C0379B03C081E090E005C085E090E08A
S1135A5002C080E090E025B78E1708F4E82FFF27F6
S1135A60E654FD4FE491237E2062E22BE5BF789457
S1135A708895F8948091D60B8F3F09F4B3CF282FE3
S1135A803327F901E759FE4F80818093D60B8F3F6E
S1135A9011F48093610C8FEF80832F3F09F4A2CF20
S1135AA04FBF822F0E94FD1F98CFACE2B0E0EBE520
S1135AB0FDE20C943731222E332E442E552E662EC1
S1135AC0772E882E992EFE013196A8E01192AA9580
S1135AD0E9F729823A824B825C826D827E828F82D0
S1135AE09886FE013996B8E01192BA95E9F7A9862D
S1135AF0BA86CB86DC86ED86FE860F87188B898175
S1135B009A81AB81BC8189A79AA7ABA7BCA77C016A
S1135B108D018FEF9FEFA0E0B0E0E822F9220A2385
S1135B201B2389A59AA5ABA5BCA51D014424552416
S1135B3089859A85AB85BC858DA39EA3AFA3B8A7A1
S1135B405C016D018FEF9FEFA0E0B0E0A822B922C5
S1135B50CA22DB228DA19EA1AFA1B8A53D01882454
S1135B609924C801B701A60195010E94C33069A315
S1135B707AA38BA39CA3C801B701A40193010E943B
S1135B80C3307B018C01C201B101A60195010E94C1
S1135B90C3305B016C01C201B101A40193010E94F5
S1135BA0C3303B014C01EA0CFB1C0C1D1D1D89A1DB
S1135BB09AA1ABA1BCA19D01442755272E0D3F1DE1
S1135BC0401F511F2A153B054C055D0540F480E03C
S1135BD090E0A1E0B0E0680E791E8A1E9B1ECA0107
S1135BE0AA27BB27860D971DA81DB91D8D8F9E8FD3
S1135BF0AF8FB8A3A9013327222789A19AA1ABA10A
S1135C00BCA1A070B070280F391F4A1F5B1F298FD9
S1135C103A8F4B8F5C8FA98CBA8CCB8CDC8CED8C3F
S1135C20FE8C0F8D18A1FE01719698E011929A9541
S1135C30E9F7ED8AFE8A0F8B188F2D813E814F8103
S1135C4058856DA17EA18FA198A50E94C3303B0108
S1135C504C012D853E854F85588969A57AA58BA56C
S1135C609CA50E94C3302D893E894F89588D260FEB
S1135C70371F481F591F260D371D481D591D2D8BD1
S1135C803E8B4F8B588F6D887E888F88988C2A2DF9
S1135C903B2D4C2D5D2D662D772D882D992DE2E120
S1135CA0AC960C945331A0E1B0E0E9E5FEE20C942B
S1135CB03731222E332E442E552E662E772E882EE3
S1135CC0992E002309F466C088E0FE0131961192F2
S1135CD08A95E9F729833A834B835C836D837E83BA
S1135CE08F829887E0E2E01B1E16CCF52D813E8161
